{
  "contractName": "Person",
  "abi": [
    {
      "constant": true,
      "inputs": [
        {
          "name": "_operator",
          "type": "address"
        },
        {
          "name": "_role",
          "type": "string"
        }
      ],
      "name": "checkRole",
      "outputs": [],
      "payable": false,
      "stateMutability": "view",
      "type": "function"
    },
    {
      "constant": true,
      "inputs": [
        {
          "name": "_operator",
          "type": "address"
        },
        {
          "name": "_role",
          "type": "string"
        }
      ],
      "name": "hasRole",
      "outputs": [
        {
          "name": "",
          "type": "bool"
        }
      ],
      "payable": false,
      "stateMutability": "view",
      "type": "function"
    },
    {
      "constant": true,
      "inputs": [
        {
          "name": "",
          "type": "bytes32"
        }
      ],
      "name": "persons",
      "outputs": [
        {
          "name": "name",
          "type": "string"
        },
        {
          "name": "addr",
          "type": "address"
        },
        {
          "name": "password",
          "type": "bytes32"
        }
      ],
      "payable": false,
      "stateMutability": "view",
      "type": "function"
    },
    {
      "constant": false,
      "inputs": [],
      "name": "renounceOwnership",
      "outputs": [],
      "payable": false,
      "stateMutability": "nonpayable",
      "type": "function"
    },
    {
      "constant": true,
      "inputs": [],
      "name": "owner",
      "outputs": [
        {
          "name": "",
          "type": "address"
        }
      ],
      "payable": false,
      "stateMutability": "view",
      "type": "function"
    },
    {
      "constant": false,
      "inputs": [
        {
          "name": "_newOwner",
          "type": "address"
        }
      ],
      "name": "transferOwnership",
      "outputs": [],
      "payable": false,
      "stateMutability": "nonpayable",
      "type": "function"
    },
    {
      "inputs": [],
      "payable": false,
      "stateMutability": "nonpayable",
      "type": "constructor"
    },
    {
      "anonymous": false,
      "inputs": [
        {
          "indexed": false,
          "name": "_nameBytes",
          "type": "bytes32"
        },
        {
          "indexed": false,
          "name": "_name",
          "type": "string"
        },
        {
          "indexed": false,
          "name": "addr",
          "type": "address"
        }
      ],
      "name": "PersonRegistered",
      "type": "event"
    },
    {
      "anonymous": false,
      "inputs": [
        {
          "indexed": false,
          "name": "_nameBytes",
          "type": "bytes32"
        },
        {
          "indexed": false,
          "name": "_name",
          "type": "string"
        },
        {
          "indexed": false,
          "name": "addr",
          "type": "address"
        }
      ],
      "name": "StaffRemoved",
      "type": "event"
    },
    {
      "anonymous": false,
      "inputs": [
        {
          "indexed": false,
          "name": "_nameBytes",
          "type": "bytes32"
        },
        {
          "indexed": false,
          "name": "_name",
          "type": "string"
        },
        {
          "indexed": false,
          "name": "addr",
          "type": "address"
        }
      ],
      "name": "ManagerRemoved",
      "type": "event"
    },
    {
      "anonymous": false,
      "inputs": [
        {
          "indexed": true,
          "name": "previousOwner",
          "type": "address"
        }
      ],
      "name": "OwnershipRenounced",
      "type": "event"
    },
    {
      "anonymous": false,
      "inputs": [
        {
          "indexed": true,
          "name": "previousOwner",
          "type": "address"
        },
        {
          "indexed": true,
          "name": "newOwner",
          "type": "address"
        }
      ],
      "name": "OwnershipTransferred",
      "type": "event"
    },
    {
      "anonymous": false,
      "inputs": [
        {
          "indexed": true,
          "name": "operator",
          "type": "address"
        },
        {
          "indexed": false,
          "name": "role",
          "type": "string"
        }
      ],
      "name": "RoleAdded",
      "type": "event"
    },
    {
      "anonymous": false,
      "inputs": [
        {
          "indexed": true,
          "name": "operator",
          "type": "address"
        },
        {
          "indexed": false,
          "name": "role",
          "type": "string"
        }
      ],
      "name": "RoleRemoved",
      "type": "event"
    },
    {
      "constant": false,
      "inputs": [
        {
          "name": "_nameBytes",
          "type": "bytes32"
        },
        {
          "name": "_name",
          "type": "string"
        },
        {
          "name": "_password",
          "type": "bytes32"
        }
      ],
      "name": "register",
      "outputs": [],
      "payable": false,
      "stateMutability": "nonpayable",
      "type": "function"
    },
    {
      "constant": false,
      "inputs": [
        {
          "name": "_nameBytes",
          "type": "bytes32"
        }
      ],
      "name": "addManager",
      "outputs": [],
      "payable": false,
      "stateMutability": "nonpayable",
      "type": "function"
    },
    {
      "constant": false,
      "inputs": [
        {
          "name": "_nameBytes",
          "type": "bytes32"
        }
      ],
      "name": "removeManager",
      "outputs": [],
      "payable": false,
      "stateMutability": "nonpayable",
      "type": "function"
    },
    {
      "constant": false,
      "inputs": [
        {
          "name": "_nameBytes",
          "type": "bytes32"
        }
      ],
      "name": "removeStaff",
      "outputs": [],
      "payable": false,
      "stateMutability": "nonpayable",
      "type": "function"
    },
    {
      "constant": true,
      "inputs": [
        {
          "name": "_nameBytes",
          "type": "bytes32"
        },
        {
          "name": "_password",
          "type": "bytes32"
        }
      ],
      "name": "isPasswordCorrect",
      "outputs": [
        {
          "name": "",
          "type": "bool"
        }
      ],
      "payable": false,
      "stateMutability": "view",
      "type": "function"
    },
    {
      "constant": true,
      "inputs": [
        {
          "name": "_nameBytes",
          "type": "bytes32"
        }
      ],
      "name": "isExisted",
      "outputs": [
        {
          "name": "",
          "type": "bool"
        }
      ],
      "payable": false,
      "stateMutability": "view",
      "type": "function"
    }
  ],
  "bytecode": "0x60806040523480156200001157600080fd5b5033600160006101000a81548173ffffffffffffffffffffffffffffffffffffffff021916908373ffffffffffffffffffffffffffffffffffffffff160217905550620000a3336040805190810160405280600581526020017f61646d696e000000000000000000000000000000000000000000000000000000815250620000f9640100000000026401000000009004565b620000f3336040805190810160405280600781526020017f6d616e6167657200000000000000000000000000000000000000000000000000815250620000f9640100000000026401000000009004565b620002a0565b62000188826000836040518082805190602001908083835b60208310151562000138578051825260208201915060208101905060208303925062000111565b6001836020036101000a03801982511681845116808217855250505050505090500191505090815260200160405180910390206200024264010000000002620016db179091906401000000009004565b8173ffffffffffffffffffffffffffffffffffffffff167fbfec83d64eaa953f2708271a023ab9ee82057f8f3578d548c1a4ba0b5b700489826040518080602001828103825283818151815260200191508051906020019080838360005b8381101562000203578082015181840152602081019050620001e6565b50505050905090810190601f168015620002315780820380516001836020036101000a031916815260200191505b509250505060405180910390a25050565b60018260000160008373ffffffffffffffffffffffffffffffffffffffff1673ffffffffffffffffffffffffffffffffffffffff16815260200190815260200160002060006101000a81548160ff0219169083151502179055505050565b61188d80620002b06000396000f3006080604052600436106100ba576000357c0100000000000000000000000000000000000000000000000000000000900463ffffffff1680630988ca8c146100bf578063217fe6c61461014857806335a18d32146101e957806341362ffd1461021a57806344d3778d1461024b57806354c57f7c146102a257806355bf94fc146102eb578063625d0be914610370578063715018a61461045c5780638da5cb5b14610473578063c5d7bf42146104ca578063f2fde38b146104fb575b600080fd5b3480156100cb57600080fd5b50610146600480360381019080803573ffffffffffffffffffffffffffffffffffffffff169060200190929190803590602001908201803590602001908080601f016020809104026020016040519081016040528093929190818152602001838380828437820191505050505050919291929050505061053e565b005b34801561015457600080fd5b506101cf600480360381019080803573ffffffffffffffffffffffffffffffffffffffff169060200190929190803590602001908201803590602001908080601f01602080910402602001604051908101604052809392919081815260200183838082843782019150505050505091929192905050506105bf565b604051808215151515815260200191505060405180910390f35b3480156101f557600080fd5b506102186004803603810190808035600019169060200190929190505050610646565b005b34801561022657600080fd5b5061024960048036038101908080356000191690602001909291905050506108d7565b005b34801561025757600080fd5b50610288600480360381019080803560001916906020019092919080356000191690602001909291905050506109b3565b604051808215151515815260200191505060405180910390f35b3480156102ae57600080fd5b506102d160048036038101908080356000191690602001909291905050506109ff565b604051808215151515815260200191505060405180910390f35b3480156102f757600080fd5b5061036e6004803603810190808035600019169060200190929190803590602001908201803590602001908080601f01602080910402602001604051908101604052809392919081815260200183838082843782019150505050505091929192908035600019169060200190929190505050610a60565b005b34801561037c57600080fd5b5061039f6004803603810190808035600019169060200190929190505050610d21565b60405180806020018473ffffffffffffffffffffffffffffffffffffffff1673ffffffffffffffffffffffffffffffffffffffff1681526020018360001916600019168152602001828103825285818151815260200191508051906020019080838360005b8381101561041f578082015181840152602081019050610404565b50505050905090810190601f16801561044c5780820380516001836020036101000a031916815260200191505b5094505050505060405180910390f35b34801561046857600080fd5b50610471610e03565b005b34801561047f57600080fd5b50610488610f08565b604051808273ffffffffffffffffffffffffffffffffffffffff1673ffffffffffffffffffffffffffffffffffffffff16815260200191505060405180910390f35b3480156104d657600080fd5b506104f96004803603810190808035600019169060200190929190505050610f2e565b005b34801561050757600080fd5b5061053c600480360381019080803573ffffffffffffffffffffffffffffffffffffffff1690602001909291905050506111bf565b005b6105bb826000836040518082805190602001908083835b60208310151561057a5780518252602082019150602081019050602083039250610555565b6001836020036101000a038019825116818451168082178552505050505050905001915050908152602001604051809103902061122790919063ffffffff16565b5050565b600061063e836000846040518082805190602001908083835b6020831015156105fd57805182526020820191506020810190506020830392506105d8565b6001836020036101000a038019825116818451168082178552505050505050905001915050908152602001604051809103902061124090919063ffffffff16565b905092915050565b600160009054906101000a900473ffffffffffffffffffffffffffffffffffffffff1673ffffffffffffffffffffffffffffffffffffffff163373ffffffffffffffffffffffffffffffffffffffff161415156106a257600080fd5b61071f60026000836000191660001916815260200190815260200160002060010160009054906101000a900473ffffffffffffffffffffffffffffffffffffffff166040805190810160405280600781526020017f6d616e6167657200000000000000000000000000000000000000000000000000815250611299565b6002600082600019166000191681526020019081526020016000206000808201600061074b9190611739565b6001820160006101000a81549073ffffffffffffffffffffffffffffffffffffffff0219169055600282016000905550507ffcd157f8b8db0f8ca0a399723a1dd53113d637efa143dec0c47ce805bf6e56058160026000846000191660001916815260200190815260200160002060000160026000856000191660001916815260200190815260200160002060010160009054906101000a900473ffffffffffffffffffffffffffffffffffffffff16604051808460001916600019168152602001806020018373ffffffffffffffffffffffffffffffffffffffff1673ffffffffffffffffffffffffffffffffffffffff1681526020018281038252848181546001816001161561010002031660029004815260200191508054600181600116156101000203166002900480156108c45780601f10610899576101008083540402835291602001916108c4565b820191906000526020600020905b8154815290600101906020018083116108a757829003601f168201915b505094505050505060405180910390a150565b600160009054906101000a900473ffffffffffffffffffffffffffffffffffffffff1673ffffffffffffffffffffffffffffffffffffffff163373ffffffffffffffffffffffffffffffffffffffff1614151561093357600080fd5b6109b060026000836000191660001916815260200190815260200160002060010160009054906101000a900473ffffffffffffffffffffffffffffffffffffffff166040805190810160405280600781526020017f6d616e61676572000000000000000000000000000000000000000000000000008152506113cd565b50565b60006109be836109ff565b15156109cd57600090506109f9565b600260008460001916600019168152602001908152602001600020600201546000191682600019161490505b92915050565b60008060026000846000191660001916815260200190815260200160002060010160009054906101000a900473ffffffffffffffffffffffffffffffffffffffff1673ffffffffffffffffffffffffffffffffffffffff1614159050919050565b610a68611781565b610a71846109ff565b151515610b0c576040517f08c379a00000000000000000000000000000000000000000000000000000000081526004018080602001828103825260378152602001807f54686973206e616d652065786973747320616c72656164792e20506c6561736581526020017f2070726f76696465206120756e69717565206e616d652e00000000000000000081525060400191505060405180910390fd5b82816000018190525033816020019073ffffffffffffffffffffffffffffffffffffffff16908173ffffffffffffffffffffffffffffffffffffffff16815250508181604001906000191690816000191681525050806002600086600019166000191681526020019081526020016000206000820151816000019080519060200190610b999291906117bc565b5060208201518160010160006101000a81548173ffffffffffffffffffffffffffffffffffffffff021916908373ffffffffffffffffffffffffffffffffffffffff16021790555060408201518160020190600019169055905050610bfd84611501565b7f65c0d69688abde8853caff478a0f988da794a7f444c4e44fa66e2a7f17756cdb848460026000886000191660001916815260200190815260200160002060010160009054906101000a900473ffffffffffffffffffffffffffffffffffffffff16604051808460001916600019168152602001806020018373ffffffffffffffffffffffffffffffffffffffff1673ffffffffffffffffffffffffffffffffffffffff168152602001828103825284818151815260200191508051906020019080838360005b83811015610cdf578082015181840152602081019050610cc4565b50505050905090810190601f168015610d0c5780820380516001836020036101000a031916815260200191505b5094505050505060405180910390a150505050565b6002602052806000526040600020600091509050806000018054600181600116156101000203166002900480601f016020809104026020016040519081016040528092919081815260200182805460018160011615610100020316600290048015610dcd5780601f10610da257610100808354040283529160200191610dcd565b820191906000526020600020905b815481529060010190602001808311610db057829003601f168201915b5050505050908060010160009054906101000a900473ffffffffffffffffffffffffffffffffffffffff16908060020154905083565b600160009054906101000a900473ffffffffffffffffffffffffffffffffffffffff1673ffffffffffffffffffffffffffffffffffffffff163373ffffffffffffffffffffffffffffffffffffffff16141515610e5f57600080fd5b600160009054906101000a900473ffffffffffffffffffffffffffffffffffffffff1673ffffffffffffffffffffffffffffffffffffffff167ff8df31144d9c2f0f6b59d69b8b98abd5459d07f2742c4df920b25aae33c6482060405160405180910390a26000600160006101000a81548173ffffffffffffffffffffffffffffffffffffffff021916908373ffffffffffffffffffffffffffffffffffffffff160217905550565b600160009054906101000a900473ffffffffffffffffffffffffffffffffffffffff1681565b600160009054906101000a900473ffffffffffffffffffffffffffffffffffffffff1673ffffffffffffffffffffffffffffffffffffffff163373ffffffffffffffffffffffffffffffffffffffff16141515610f8a57600080fd5b61100760026000836000191660001916815260200190815260200160002060010160009054906101000a900473ffffffffffffffffffffffffffffffffffffffff166040805190810160405280600581526020017f7374616666000000000000000000000000000000000000000000000000000000815250611299565b600260008260001916600019168152602001908152602001600020600080820160006110339190611739565b6001820160006101000a81549073ffffffffffffffffffffffffffffffffffffffff0219169055600282016000905550507f693923c7c3e0766e31ff70a7bd6977d299ffe12114f5f3d094983533c755627a8160026000846000191660001916815260200190815260200160002060000160026000856000191660001916815260200190815260200160002060010160009054906101000a900473ffffffffffffffffffffffffffffffffffffffff16604051808460001916600019168152602001806020018373ffffffffffffffffffffffffffffffffffffffff1673ffffffffffffffffffffffffffffffffffffffff1681526020018281038252848181546001816001161561010002031660029004815260200191508054600181600116156101000203166002900480156111ac5780601f10611181576101008083540402835291602001916111ac565b820191906000526020600020905b81548152906001019060200180831161118f57829003601f168201915b505094505050505060405180910390a150565b600160009054906101000a900473ffffffffffffffffffffffffffffffffffffffff1673ffffffffffffffffffffffffffffffffffffffff163373ffffffffffffffffffffffffffffffffffffffff1614151561121b57600080fd5b61122481611581565b50565b6112318282611240565b151561123c57600080fd5b5050565b60008260000160008373ffffffffffffffffffffffffffffffffffffffff1673ffffffffffffffffffffffffffffffffffffffff16815260200190815260200160002060009054906101000a900460ff16905092915050565b611316826000836040518082805190602001908083835b6020831015156112d557805182526020820191506020810190506020830392506112b0565b6001836020036101000a038019825116818451168082178552505050505050905001915050908152602001604051809103902061167d90919063ffffffff16565b8173ffffffffffffffffffffffffffffffffffffffff167fd211483f91fc6eff862467f8de606587a30c8fc9981056f051b897a418df803a826040518080602001828103825283818151815260200191508051906020019080838360005b8381101561138f578082015181840152602081019050611374565b50505050905090810190601f1680156113bc5780820380516001836020036101000a031916815260200191505b509250505060405180910390a25050565b61144a826000836040518082805190602001908083835b60208310151561140957805182526020820191506020810190506020830392506113e4565b6001836020036101000a03801982511681845116808217855250505050505090500191505090815260200160405180910390206116db90919063ffffffff16565b8173ffffffffffffffffffffffffffffffffffffffff167fbfec83d64eaa953f2708271a023ab9ee82057f8f3578d548c1a4ba0b5b700489826040518080602001828103825283818151815260200191508051906020019080838360005b838110156114c35780820151818401526020810190506114a8565b50505050905090810190601f1680156114f05780820380516001836020036101000a031916815260200191505b509250505060405180910390a25050565b61157e60026000836000191660001916815260200190815260200160002060010160009054906101000a900473ffffffffffffffffffffffffffffffffffffffff166040805190810160405280600581526020017f73746166660000000000000000000000000000000000000000000000000000008152506113cd565b50565b600073ffffffffffffffffffffffffffffffffffffffff168173ffffffffffffffffffffffffffffffffffffffff16141515156115bd57600080fd5b8073ffffffffffffffffffffffffffffffffffffffff16600160009054906101000a900473ffffffffffffffffffffffffffffffffffffffff1673ffffffffffffffffffffffffffffffffffffffff167f8be0079c531659141344cd1fd0a4f28419497f9722a3daafe3b4186f6b6457e060405160405180910390a380600160006101000a81548173ffffffffffffffffffffffffffffffffffffffff021916908373ffffffffffffffffffffffffffffffffffffffff16021790555050565b60008260000160008373ffffffffffffffffffffffffffffffffffffffff1673ffffffffffffffffffffffffffffffffffffffff16815260200190815260200160002060006101000a81548160ff0219169083151502179055505050565b60018260000160008373ffffffffffffffffffffffffffffffffffffffff1673ffffffffffffffffffffffffffffffffffffffff16815260200190815260200160002060006101000a81548160ff0219169083151502179055505050565b50805460018160011615610100020316600290046000825580601f1061175f575061177e565b601f01602090049060005260206000209081019061177d919061183c565b5b50565b60606040519081016040528060608152602001600073ffffffffffffffffffffffffffffffffffffffff168152602001600080191681525090565b828054600181600116156101000203166002900490600052602060002090601f016020900481019282601f106117fd57805160ff191683800117855561182b565b8280016001018555821561182b579182015b8281111561182a57825182559160200191906001019061180f565b5b509050611838919061183c565b5090565b61185e91905b8082111561185a576000816000905550600101611842565b5090565b905600a165627a7a7230582096eb43b32850726a6695bcc344148d29d3fca90fb9f837944a82ca399c8306b60029",
  "source": "pragma solidity ^0.4.24;\n\n// File: D:/Blockchain-JS/suggestion-box/contracts/node_modules/openzeppelin-solidity/contracts/access/rbac/Roles.sol\n\n/**\n * @title Roles\n * @author Francisco Giordano (@frangio)\n * @dev Library for managing addresses assigned to a Role.\n * See RBAC.sol for example usage.\n */\nlibrary Roles {\n  struct Role {\n    mapping (address => bool) bearer;\n  }\n\n  /**\n   * @dev give an address access to this role\n   */\n  function add(Role storage _role, address _addr)\n    internal\n  {\n    _role.bearer[_addr] = true;\n  }\n\n  /**\n   * @dev remove an address' access to this role\n   */\n  function remove(Role storage _role, address _addr)\n    internal\n  {\n    _role.bearer[_addr] = false;\n  }\n\n  /**\n   * @dev check if an address has this role\n   * // reverts\n   */\n  function check(Role storage _role, address _addr)\n    internal\n    view\n  {\n    require(has(_role, _addr));\n  }\n\n  /**\n   * @dev check if an address has this role\n   * @return bool\n   */\n  function has(Role storage _role, address _addr)\n    internal\n    view\n    returns (bool)\n  {\n    return _role.bearer[_addr];\n  }\n}\n\n// File: D:/Blockchain-JS/suggestion-box/contracts/node_modules/openzeppelin-solidity/contracts/access/rbac/RBAC.sol\n\n/**\n * @title RBAC (Role-Based Access Control)\n * @author Matt Condon (@Shrugs)\n * @dev Stores and provides setters and getters for roles and addresses.\n * Supports unlimited numbers of roles and addresses.\n * See //contracts/mocks/RBACMock.sol for an example of usage.\n * This RBAC method uses strings to key roles. It may be beneficial\n * for you to write your own implementation of this interface using Enums or similar.\n */\ncontract RBAC {\n  using Roles for Roles.Role;\n\n  mapping (string => Roles.Role) private roles;\n\n  event RoleAdded(address indexed operator, string role);\n  event RoleRemoved(address indexed operator, string role);\n\n  /**\n   * @dev reverts if addr does not have role\n   * @param _operator address\n   * @param _role the name of the role\n   * // reverts\n   */\n  function checkRole(address _operator, string _role)\n    public\n    view\n  {\n    roles[_role].check(_operator);\n  }\n\n  /**\n   * @dev determine if addr has role\n   * @param _operator address\n   * @param _role the name of the role\n   * @return bool\n   */\n  function hasRole(address _operator, string _role)\n    public\n    view\n    returns (bool)\n  {\n    return roles[_role].has(_operator);\n  }\n\n  /**\n   * @dev add a role to an address\n   * @param _operator address\n   * @param _role the name of the role\n   */\n  function addRole(address _operator, string _role)\n    internal\n  {\n    roles[_role].add(_operator);\n    emit RoleAdded(_operator, _role);\n  }\n\n  /**\n   * @dev remove a role from an address\n   * @param _operator address\n   * @param _role the name of the role\n   */\n  function removeRole(address _operator, string _role)\n    internal\n  {\n    roles[_role].remove(_operator);\n    emit RoleRemoved(_operator, _role);\n  }\n\n  /**\n   * @dev modifier to scope access to a single role (uses msg.sender as addr)\n   * @param _role the name of the role\n   * // reverts\n   */\n  modifier onlyRole(string _role)\n  {\n    checkRole(msg.sender, _role);\n    _;\n  }\n\n  /**\n   * @dev modifier to scope access to a set of roles (uses msg.sender as addr)\n   * @param _roles the names of the roles to scope access to\n   * // reverts\n   *\n   * @TODO - when solidity supports dynamic arrays as arguments to modifiers, provide this\n   *  see: https://github.com/ethereum/solidity/issues/2467\n   */\n  // modifier onlyRoles(string[] _roles) {\n  //     bool hasAnyRole = false;\n  //     for (uint8 i = 0; i < _roles.length; i++) {\n  //         if (hasRole(msg.sender, _roles[i])) {\n  //             hasAnyRole = true;\n  //             break;\n  //         }\n  //     }\n\n  //     require(hasAnyRole);\n\n  //     _;\n  // }\n}\n\n// File: D:/Blockchain-JS/suggestion-box/contracts/node_modules/openzeppelin-solidity/contracts/ownership/Ownable.sol\n\n/**\n * @title Ownable\n * @dev The Ownable contract has an owner address, and provides basic authorization control\n * functions, this simplifies the implementation of \"user permissions\".\n */\ncontract Ownable {\n  address public owner;\n\n\n  event OwnershipRenounced(address indexed previousOwner);\n  event OwnershipTransferred(\n    address indexed previousOwner,\n    address indexed newOwner\n  );\n\n\n  /**\n   * @dev The Ownable constructor sets the original `owner` of the contract to the sender\n   * account.\n   */\n  constructor() public {\n    owner = msg.sender;\n  }\n\n  /**\n   * @dev Throws if called by any account other than the owner.\n   */\n  modifier onlyOwner() {\n    require(msg.sender == owner);\n    _;\n  }\n\n  /**\n   * @dev Allows the current owner to relinquish control of the contract.\n   * @notice Renouncing to ownership will leave the contract without an owner.\n   * It will not be possible to call the functions with the `onlyOwner`\n   * modifier anymore.\n   */\n  function renounceOwnership() public onlyOwner {\n    emit OwnershipRenounced(owner);\n    owner = address(0);\n  }\n\n  /**\n   * @dev Allows the current owner to transfer control of the contract to a newOwner.\n   * @param _newOwner The address to transfer ownership to.\n   */\n  function transferOwnership(address _newOwner) public onlyOwner {\n    _transferOwnership(_newOwner);\n  }\n\n  /**\n   * @dev Transfers control of the contract to a newOwner.\n   * @param _newOwner The address to transfer ownership to.\n   */\n  function _transferOwnership(address _newOwner) internal {\n    require(_newOwner != address(0));\n    emit OwnershipTransferred(owner, _newOwner);\n    owner = _newOwner;\n  }\n}\n\n// File: contracts\\Person.sol\n\n\ncontract Person is RBAC, Ownable{\n    string internal constant ADMIN      = \"admin\";\n    string internal constant MANAGER    = \"manager\";\n    string internal constant STAFF      = \"staff\";\n\n    struct Person {\n        string  name;\n        address addr;\n        bytes32 password;\n    }\n\n    mapping(bytes32 => Person) public persons; // use keccak\"name\" to retrieve Person info\n\n    constructor() public{\n        addRole(msg.sender, ADMIN);\n        addRole(msg.sender, MANAGER);\n    }\n\n    function register(bytes32 _nameBytes, string _name, bytes32 _password) public {\n        require(!isExisted(_nameBytes),\"This name exists already. Please provide a unique name.\");\n        Person memory person;\n        person.name = _name;\n        person.addr = msg.sender;\n        person.password = _password;\n        persons[_nameBytes] = person;\n        addStaff(_nameBytes);\n        emit PersonRegistered(_nameBytes, _name, persons[_nameBytes].addr);\n    }\n\n    function addManager(bytes32 _nameBytes) public onlyOwner{\n        addRole(persons[_nameBytes].addr, MANAGER);\n    }\n\n    function removeManager(bytes32 _nameBytes) public onlyOwner{\n        removeRole(persons[_nameBytes].addr, MANAGER);\n        delete persons[_nameBytes];\n        emit ManagerRemoved(_nameBytes, persons[_nameBytes].name, persons[_nameBytes].addr);\n    }\n\n    function addStaff(bytes32 _nameBytes) internal{\n        addRole(persons[_nameBytes].addr, STAFF);\n    }\n\n    function removeStaff(bytes32 _nameBytes) public onlyOwner{\n        removeRole(persons[_nameBytes].addr, STAFF);\n        delete persons[_nameBytes];\n        emit StaffRemoved(_nameBytes, persons[_nameBytes].name, persons[_nameBytes].addr);\n    }\n\n    function isPasswordCorrect(bytes32 _nameBytes, bytes32 _password) view public returns(bool){\n        if(!isExisted(_nameBytes)){\n            return false;\n        }else{\n            return _password == persons[_nameBytes].password;\n        }\n    }\n\n    function isExisted(bytes32 _nameBytes) view public returns(bool){\n        return persons[_nameBytes].addr != 0x0; \n    }\n\n    // function getPersons() constant returns(mapping(string => Person)){\n    //     return persons;\n    // }\n\n    event PersonRegistered(bytes32 _nameBytes, string _name, address addr);\n    event StaffRemoved(bytes32 _nameBytes, string _name, address addr);\n    event ManagerRemoved(bytes32 _nameBytes, string _name, address addr);\n}\n",
  "sourcePath": "D:\\Blockchain-JS\\suggestion-box\\contracts\\contracts\\flat_Person.sol",
  "compiler": {
    "name": "solc",
    "version": "0.4.24+commit.e67f0147.Emscripten.clang"
  },
  "schemaVersion": "2.0.1",
  "updatedAt": "2018-09-05T22:18:34.059Z"
}