{
  "contractName": "RBAC",
  "abi": [
    {
      "anonymous": false,
      "inputs": [
        {
          "indexed": true,
          "name": "operator",
          "type": "address"
        },
        {
          "indexed": false,
          "name": "role",
          "type": "string"
        }
      ],
      "name": "RoleAdded",
      "type": "event"
    },
    {
      "anonymous": false,
      "inputs": [
        {
          "indexed": true,
          "name": "operator",
          "type": "address"
        },
        {
          "indexed": false,
          "name": "role",
          "type": "string"
        }
      ],
      "name": "RoleRemoved",
      "type": "event"
    },
    {
      "constant": true,
      "inputs": [
        {
          "name": "_operator",
          "type": "address"
        },
        {
          "name": "_role",
          "type": "string"
        }
      ],
      "name": "checkRole",
      "outputs": [],
      "payable": false,
      "stateMutability": "view",
      "type": "function"
    },
    {
      "constant": true,
      "inputs": [
        {
          "name": "_operator",
          "type": "address"
        },
        {
          "name": "_role",
          "type": "string"
        }
      ],
      "name": "hasRole",
      "outputs": [
        {
          "name": "",
          "type": "bool"
        }
      ],
      "payable": false,
      "stateMutability": "view",
      "type": "function"
    }
  ],
  "bytecode": "0x608060405234801561001057600080fd5b50610321806100206000396000f30060806040526004361061004c576000357c0100000000000000000000000000000000000000000000000000000000900463ffffffff1680630988ca8c14610051578063217fe6c6146100da575b600080fd5b34801561005d57600080fd5b506100d8600480360381019080803573ffffffffffffffffffffffffffffffffffffffff169060200190929190803590602001908201803590602001908080601f016020809104026020016040519081016040528093929190818152602001838380828437820191505050505050919291929050505061017b565b005b3480156100e657600080fd5b50610161600480360381019080803573ffffffffffffffffffffffffffffffffffffffff169060200190929190803590602001908201803590602001908080601f01602080910402602001604051908101604052809392919081815260200183838082843782019150505050505091929192905050506101fc565b604051808215151515815260200191505060405180910390f35b6101f8826000836040518082805190602001908083835b6020831015156101b75780518252602082019150602081019050602083039250610192565b6001836020036101000a038019825116818451168082178552505050505050905001915050908152602001604051809103902061028390919063ffffffff16565b5050565b600061027b836000846040518082805190602001908083835b60208310151561023a5780518252602082019150602081019050602083039250610215565b6001836020036101000a038019825116818451168082178552505050505050905001915050908152602001604051809103902061029c90919063ffffffff16565b905092915050565b61028d828261029c565b151561029857600080fd5b5050565b60008260000160008373ffffffffffffffffffffffffffffffffffffffff1673ffffffffffffffffffffffffffffffffffffffff16815260200190815260200160002060009054906101000a900460ff169050929150505600a165627a7a72305820f8beda75cd08679e1d22461d7cf0988752d50b316cd48fa15e871dcae17fb3780029",
  "source": "pragma solidity ^0.4.24;\n\n// File: D:/Blockchain-JS/suggestion-box/contracts/node_modules/openzeppelin-solidity/contracts/access/rbac/Roles.sol\n\n/**\n * @title Roles\n * @author Francisco Giordano (@frangio)\n * @dev Library for managing addresses assigned to a Role.\n * See RBAC.sol for example usage.\n */\nlibrary Roles {\n  struct Role {\n    mapping (address => bool) bearer;\n  }\n\n  /**\n   * @dev give an address access to this role\n   */\n  function add(Role storage _role, address _addr)\n    internal\n  {\n    _role.bearer[_addr] = true;\n  }\n\n  /**\n   * @dev remove an address' access to this role\n   */\n  function remove(Role storage _role, address _addr)\n    internal\n  {\n    _role.bearer[_addr] = false;\n  }\n\n  /**\n   * @dev check if an address has this role\n   * // reverts\n   */\n  function check(Role storage _role, address _addr)\n    internal\n    view\n  {\n    require(has(_role, _addr));\n  }\n\n  /**\n   * @dev check if an address has this role\n   * @return bool\n   */\n  function has(Role storage _role, address _addr)\n    internal\n    view\n    returns (bool)\n  {\n    return _role.bearer[_addr];\n  }\n}\n\n// File: D:/Blockchain-JS/suggestion-box/contracts/node_modules/openzeppelin-solidity/contracts/access/rbac/RBAC.sol\n\n/**\n * @title RBAC (Role-Based Access Control)\n * @author Matt Condon (@Shrugs)\n * @dev Stores and provides setters and getters for roles and addresses.\n * Supports unlimited numbers of roles and addresses.\n * See //contracts/mocks/RBACMock.sol for an example of usage.\n * This RBAC method uses strings to key roles. It may be beneficial\n * for you to write your own implementation of this interface using Enums or similar.\n */\ncontract RBAC {\n  using Roles for Roles.Role;\n\n  mapping (string => Roles.Role) private roles;\n\n  event RoleAdded(address indexed operator, string role);\n  event RoleRemoved(address indexed operator, string role);\n\n  /**\n   * @dev reverts if addr does not have role\n   * @param _operator address\n   * @param _role the name of the role\n   * // reverts\n   */\n  function checkRole(address _operator, string _role)\n    public\n    view\n  {\n    roles[_role].check(_operator);\n  }\n\n  /**\n   * @dev determine if addr has role\n   * @param _operator address\n   * @param _role the name of the role\n   * @return bool\n   */\n  function hasRole(address _operator, string _role)\n    public\n    view\n    returns (bool)\n  {\n    return roles[_role].has(_operator);\n  }\n\n  /**\n   * @dev add a role to an address\n   * @param _operator address\n   * @param _role the name of the role\n   */\n  function addRole(address _operator, string _role)\n    internal\n  {\n    roles[_role].add(_operator);\n    emit RoleAdded(_operator, _role);\n  }\n\n  /**\n   * @dev remove a role from an address\n   * @param _operator address\n   * @param _role the name of the role\n   */\n  function removeRole(address _operator, string _role)\n    internal\n  {\n    roles[_role].remove(_operator);\n    emit RoleRemoved(_operator, _role);\n  }\n\n  /**\n   * @dev modifier to scope access to a single role (uses msg.sender as addr)\n   * @param _role the name of the role\n   * // reverts\n   */\n  modifier onlyRole(string _role)\n  {\n    checkRole(msg.sender, _role);\n    _;\n  }\n\n  /**\n   * @dev modifier to scope access to a set of roles (uses msg.sender as addr)\n   * @param _roles the names of the roles to scope access to\n   * // reverts\n   *\n   * @TODO - when solidity supports dynamic arrays as arguments to modifiers, provide this\n   *  see: https://github.com/ethereum/solidity/issues/2467\n   */\n  // modifier onlyRoles(string[] _roles) {\n  //     bool hasAnyRole = false;\n  //     for (uint8 i = 0; i < _roles.length; i++) {\n  //         if (hasRole(msg.sender, _roles[i])) {\n  //             hasAnyRole = true;\n  //             break;\n  //         }\n  //     }\n\n  //     require(hasAnyRole);\n\n  //     _;\n  // }\n}\n\n// File: D:/Blockchain-JS/suggestion-box/contracts/node_modules/openzeppelin-solidity/contracts/ownership/Ownable.sol\n\n/**\n * @title Ownable\n * @dev The Ownable contract has an owner address, and provides basic authorization control\n * functions, this simplifies the implementation of \"user permissions\".\n */\ncontract Ownable {\n  address public owner;\n\n\n  event OwnershipRenounced(address indexed previousOwner);\n  event OwnershipTransferred(\n    address indexed previousOwner,\n    address indexed newOwner\n  );\n\n\n  /**\n   * @dev The Ownable constructor sets the original `owner` of the contract to the sender\n   * account.\n   */\n  constructor() public {\n    owner = msg.sender;\n  }\n\n  /**\n   * @dev Throws if called by any account other than the owner.\n   */\n  modifier onlyOwner() {\n    require(msg.sender == owner);\n    _;\n  }\n\n  /**\n   * @dev Allows the current owner to relinquish control of the contract.\n   * @notice Renouncing to ownership will leave the contract without an owner.\n   * It will not be possible to call the functions with the `onlyOwner`\n   * modifier anymore.\n   */\n  function renounceOwnership() public onlyOwner {\n    emit OwnershipRenounced(owner);\n    owner = address(0);\n  }\n\n  /**\n   * @dev Allows the current owner to transfer control of the contract to a newOwner.\n   * @param _newOwner The address to transfer ownership to.\n   */\n  function transferOwnership(address _newOwner) public onlyOwner {\n    _transferOwnership(_newOwner);\n  }\n\n  /**\n   * @dev Transfers control of the contract to a newOwner.\n   * @param _newOwner The address to transfer ownership to.\n   */\n  function _transferOwnership(address _newOwner) internal {\n    require(_newOwner != address(0));\n    emit OwnershipTransferred(owner, _newOwner);\n    owner = _newOwner;\n  }\n}\n\n// File: contracts\\Person.sol\n\ncontract Person is RBAC, Ownable{\n    string internal constant ADMIN      = \"admin\";\n    string internal constant MANAGER    = \"manager\";\n    string internal constant STAFF      = \"staff\";\n\n    struct Person {\n        string  name;\n        address addr;\n        bytes32 password;\n    }\n\n    mapping(bytes32 => Person) public persons; // use keccak\"name\" to retrieve Person info\n\n    constructor() public{\n        addRole(msg.sender, ADMIN);\n        addRole(msg.sender, MANAGER);\n    }\n\n    function register(bytes32 _nameBytes, string _name, bytes32 _password) public {\n        require(!isExisted(_nameBytes),\"This name exists already. Please provide a unique name.\");\n        Person memory person;\n        person.name = _name;\n        person.addr = msg.sender;\n        person.password = _password;\n        persons[_nameBytes] = person;\n        addStaff(_nameBytes);\n        emit PersonRegistered(_nameBytes, _name, persons[_nameBytes].addr);\n    }\n\n    function addManager(bytes32 _nameBytes) public onlyOwner{\n        addRole(persons[_nameBytes].addr, MANAGER);\n    }\n\n    function removeManager(bytes32 _nameBytes) public onlyOwner{\n        removeRole(persons[_nameBytes].addr, MANAGER);\n        delete persons[_nameBytes];\n        emit ManagerRemoved(_nameBytes, persons[_nameBytes].name, persons[_nameBytes].addr);\n    }\n\n    function addStaff(bytes32 _nameBytes) internal{\n        addRole(persons[_nameBytes].addr, STAFF);\n    }\n\n    function removeStaff(bytes32 _nameBytes) public onlyOwner{\n        removeRole(persons[_nameBytes].addr, STAFF);\n        delete persons[_nameBytes];\n        emit StaffRemoved(_nameBytes, persons[_nameBytes].name, persons[_nameBytes].addr);\n    }\n\n    function isPasswordCorrect(bytes32 _nameBytes, bytes32 _password) view public returns(bool){\n        if(!isExisted(_nameBytes)){\n            return false;\n        }else{\n            return _password == persons[_nameBytes].password;\n        }\n    }\n\n    function isExisted(bytes32 _nameBytes) view public returns(bool){\n        return persons[_nameBytes].addr != 0x0; \n    }\n    \n    function isManager(bytes32 _nameBytes) view public returns(bool){\n        return hasRole(persons[_nameBytes].addr,MANAGER);\n    }\n\n    function isAdmin(bytes32 _nameBytes) view public returns(bool){\n        return hasRole(persons[_nameBytes].addr,ADMIN);\n    }\n\n    // function getPersons() constant returns(mapping(string => Person)){\n    //     return persons;\n    // }\n\n    event PersonRegistered(bytes32 _nameBytes, string _name, address addr);\n    event StaffRemoved(bytes32 _nameBytes, string _name, address addr);\n    event ManagerRemoved(bytes32 _nameBytes, string _name, address addr);\n}\n",
  "sourcePath": "D:\\Blockchain-JS\\suggestion-box\\contracts\\contracts\\flat_Person.sol",
  "compiler": {
    "name": "solc",
    "version": "0.4.24+commit.e67f0147.Emscripten.clang"
  },
  "schemaVersion": "3.0.0-beta.0",
  "updatedAt": "2018-09-25T23:42:50.519Z"
}